{
  "transactions": [
    {
      "hash": "0x74a0d4eb639727522a68163bdadfae37b8c4af0887b02d9d1869cf58d42fef57",
      "transactionType": "CALL",
      "contractName": null,
      "contractAddress": "0xc302bd52985e75c1f563a47f2b5dfc4e2b5c6c7e",
      "function": "approve(address,uint256)",
      "arguments": [
        "0x4a43A176Be8b40E016CB5cb568F1CE68b8A5516f",
        "1000000000000000000"
      ],
      "transaction": {
        "from": "0x8a82a574c1067bb12676d488277087ac063f21d5",
        "to": "0xc302bd52985e75c1f563a47f2b5dfc4e2b5c6c7e",
        "gas": "0x108e9",
        "value": "0x0",
        "input": "0x095ea7b30000000000000000000000004a43a176be8b40e016cb5cb568f1ce68b8a5516f0000000000000000000000000000000000000000000000000de0b6b3a7640000",
        "nonce": "0x16",
        "chainId": "0x13882"
      },
      "additionalContracts": [],
      "isFixedGasLimit": false
    },
    {
      "hash": "0xe46ef3edc16d3e2d0ddce4b882edf3f0442a59398dfd4dd7a1d1ad7caf7bd2f3",
      "transactionType": "CALL",
      "contractName": null,
      "contractAddress": "0x4a43a176be8b40e016cb5cb568f1ce68b8a5516f",
      "function": "init()",
      "arguments": [],
      "transaction": {
        "from": "0x8a82a574c1067bb12676d488277087ac063f21d5",
        "to": "0x4a43a176be8b40e016cb5cb568f1ce68b8a5516f",
        "gas": "0x1c46f",
        "value": "0x0",
        "input": "0xe1c7392a",
        "nonce": "0x17",
        "chainId": "0x13882"
      },
      "additionalContracts": [],
      "isFixedGasLimit": false
    }
  ],
  "receipts": [
    {
      "status": "0x1",
      "cumulativeGasUsed": "0x4c23dd",
      "logs": [
        {
          "address": "0xc302bd52985e75c1f563a47f2b5dfc4e2b5c6c7e",
          "topics": [
            "0x8c5be1e5ebec7d5bd14f71427d1e84f3dd0314c0f7b2291e5b200ac8c7c3b925",
            "0x0000000000000000000000008a82a574c1067bb12676d488277087ac063f21d5",
            "0x0000000000000000000000004a43a176be8b40e016cb5cb568f1ce68b8a5516f"
          ],
          "data": "0x0000000000000000000000000000000000000000000000000de0b6b3a7640000",
          "blockHash": "0x5cfb20ec9413895b75b689abc9e2e18a8d7807a6dd0416fa26504c7fe071a833",
          "blockNumber": "0x714941",
          "transactionHash": "0x74a0d4eb639727522a68163bdadfae37b8c4af0887b02d9d1869cf58d42fef57",
          "transactionIndex": "0x12",
          "logIndex": "0x68",
          "removed": false
        },
        {
          "address": "0x0000000000000000000000000000000000001010",
          "topics": [
            "0x4dfe1bbbcf077ddc3e01291eea2d5c70c2b422b415d95645b9adcfd678cb1d63",
            "0x0000000000000000000000000000000000000000000000000000000000001010",
            "0x0000000000000000000000008a82a574c1067bb12676d488277087ac063f21d5",
            "0x000000000000000000000000ede32b0c9587b92ede83665477f7ec261fd85f0a"
          ],
          "data": "0x00000000000000000000000000000000000000000000000000002e643fae6100000000000000000000000000000000000000000000000000008e24862618342c000000000000000000000000000000000000000000000009b1f9b2371e867663000000000000000000000000000000000000000000000000008df621e669d32c000000000000000000000000000000000000000000000009b1f9e09b5e34d763",
          "blockHash": "0x5cfb20ec9413895b75b689abc9e2e18a8d7807a6dd0416fa26504c7fe071a833",
          "blockNumber": "0x714941",
          "transactionHash": "0x74a0d4eb639727522a68163bdadfae37b8c4af0887b02d9d1869cf58d42fef57",
          "transactionIndex": "0x12",
          "logIndex": "0x69",
          "removed": false
        }
      ],
      "logsBloom": "0x00000000000000000000000000000000000000000000000000000000000000000000000000000000000000000080000000008020000000000000000000200000000000000000000000000000000000800010000000000000000100000000000000200000000000004000020000000000000000000c00000080000000000000000000000000040000000000000000000000000000000000000000000000000000228000000000000000000000000000000000000000000000000000000000004000000000000000000001000000000000000000000000000000100000000010000010000000000000000000000000000000000000000000000000000000100040",
      "type": "0x2",
      "transactionHash": "0x74a0d4eb639727522a68163bdadfae37b8c4af0887b02d9d1869cf58d42fef57",
      "transactionIndex": "0x12",
      "blockHash": "0x5cfb20ec9413895b75b689abc9e2e18a8d7807a6dd0416fa26504c7fe071a833",
      "blockNumber": "0x714941",
      "gasUsed": "0xb523",
      "effectiveGasPrice": "0x4190ab11",
      "from": "0x8a82a574c1067bb12676d488277087ac063f21d5",
      "to": "0xc302bd52985e75c1f563a47f2b5dfc4e2b5c6c7e",
      "contractAddress": null
    },
    {
      "status": "0x1",
      "cumulativeGasUsed": "0x5aa8ea",
      "logs": [
        {
          "address": "0xc302bd52985e75c1f563a47f2b5dfc4e2b5c6c7e",
          "topics": [
            "0xddf252ad1be2c89b69c2b068fc378daa952ba7f163c4a11628f55a4df523b3ef",
            "0x0000000000000000000000008a82a574c1067bb12676d488277087ac063f21d5",
            "0x0000000000000000000000004a43a176be8b40e016cb5cb568f1ce68b8a5516f"
          ],
          "data": "0x0000000000000000000000000000000000000000000000000de0b6b3a7640000",
          "blockHash": "0x5cfb20ec9413895b75b689abc9e2e18a8d7807a6dd0416fa26504c7fe071a833",
          "blockNumber": "0x714941",
          "transactionHash": "0xe46ef3edc16d3e2d0ddce4b882edf3f0442a59398dfd4dd7a1d1ad7caf7bd2f3",
          "transactionIndex": "0x18",
          "logIndex": "0x86",
          "removed": false
        },
        {
          "address": "0x0000000000000000000000000000000000001010",
          "topics": [
            "0x4dfe1bbbcf077ddc3e01291eea2d5c70c2b422b415d95645b9adcfd678cb1d63",
            "0x0000000000000000000000000000000000000000000000000000000000001010",
            "0x0000000000000000000000008a82a574c1067bb12676d488277087ac063f21d5",
            "0x000000000000000000000000ede32b0c9587b92ede83665477f7ec261fd85f0a"
          ],
          "data": "0x000000000000000000000000000000000000000000000000000053e46a3c8500000000000000000000000000000000000000000000000000008df621e65dcbd9000000000000000000000000000000000000000000000009b1fd44b3cb280163000000000000000000000000000000000000000000000000008da23d7c2146d9000000000000000000000000000000000000000000000009b1fd989835648663",
          "blockHash": "0x5cfb20ec9413895b75b689abc9e2e18a8d7807a6dd0416fa26504c7fe071a833",
          "blockNumber": "0x714941",
          "transactionHash": "0xe46ef3edc16d3e2d0ddce4b882edf3f0442a59398dfd4dd7a1d1ad7caf7bd2f3",
          "transactionIndex": "0x18",
          "logIndex": "0x87",
          "removed": false
        }
      ],
      "logsBloom": "0x00000000000000000000000000000000000000000000000000000000000000000000000000000000000000000080000000008020000000000000000000000000000000000000000000000008000000800010000000000000000100000000000000200000000000004000020000000000000000000c00000080000010000000000000000000040000000000000000000000000000000000000000000000000000208000000000000000000000000000000000000000000000000000000000004000000002000000000001000000000000000000000000000000100000000010000000000000000000000000000000000000000000000000000000000000100040",
      "type": "0x2",
      "transactionHash": "0xe46ef3edc16d3e2d0ddce4b882edf3f0442a59398dfd4dd7a1d1ad7caf7bd2f3",
      "transactionIndex": "0x18",
      "blockHash": "0x5cfb20ec9413895b75b689abc9e2e18a8d7807a6dd0416fa26504c7fe071a833",
      "blockNumber": "0x714941",
      "gasUsed": "0x1478f",
      "effectiveGasPrice": "0x4190ab11",
      "from": "0x8a82a574c1067bb12676d488277087ac063f21d5",
      "to": "0x4a43a176be8b40e016cb5cb568f1ce68b8a5516f",
      "contractAddress": null
    }
  ],
  "libraries": [],
  "pending": [],
  "returns": {},
  "timestamp": 1716531325,
  "chain": 80002,
  "commit": "ee4b648"
}