{
  "transactions": [
    {
      "hash": "0xd3cc939db2ed9ac66eac40fc8538e1a35adc179052afc92fe071586b39e64fc1",
      "transactionType": "CALL",
      "contractName": null,
      "contractAddress": "0xb1b104d79de24513338bdb6cb9df468110010e5f",
      "function": "approve(address,uint256)",
      "arguments": [
        "0x2DE7f048E4D99784983CfE24193B6e8818F91503",
        "650000000000000000000"
      ],
      "transaction": {
        "from": "0x8a82a574c1067bb12676d488277087ac063f21d5",
        "to": "0xb1b104d79de24513338bdb6cb9df468110010e5f",
        "gas": "0xfa41",
        "value": "0x0",
        "input": "0x095ea7b30000000000000000000000002de7f048e4d99784983cfe24193b6e8818f915030000000000000000000000000000000000000000000000233c8fe42703e80000",
        "nonce": "0x1a",
        "chainId": "0x13882"
      },
      "additionalContracts": [],
      "isFixedGasLimit": false
    },
    {
      "hash": "0x9cf9b26e9ba576abb874e6aea6abf7d28edadfea83f2eb75774d9fe91170e371",
      "transactionType": "CALL",
      "contractName": null,
      "contractAddress": "0x2de7f048e4d99784983cfe24193b6e8818f91503",
      "function": "init()",
      "arguments": [],
      "transaction": {
        "from": "0x8a82a574c1067bb12676d488277087ac063f21d5",
        "to": "0x2de7f048e4d99784983cfe24193b6e8818f91503",
        "gas": "0x22ad8",
        "value": "0x0",
        "input": "0xe1c7392a",
        "nonce": "0x1b",
        "chainId": "0x13882"
      },
      "additionalContracts": [],
      "isFixedGasLimit": false
    }
  ],
  "receipts": [
    {
      "status": "0x1",
      "cumulativeGasUsed": "0x60e61",
      "logs": [
        {
          "address": "0xb1b104d79de24513338bdb6cb9df468110010e5f",
          "topics": [
            "0x8c5be1e5ebec7d5bd14f71427d1e84f3dd0314c0f7b2291e5b200ac8c7c3b925",
            "0x0000000000000000000000008a82a574c1067bb12676d488277087ac063f21d5",
            "0x0000000000000000000000002de7f048e4d99784983cfe24193b6e8818f91503"
          ],
          "data": "0x0000000000000000000000000000000000000000000000233c8fe42703e80000",
          "blockHash": "0x9e35286d148f6f17feb583d88eff044bd50361470d94b15e35b0369288271236",
          "blockNumber": "0x714ce4",
          "transactionHash": "0xd3cc939db2ed9ac66eac40fc8538e1a35adc179052afc92fe071586b39e64fc1",
          "transactionIndex": "0x2",
          "logIndex": "0x15",
          "removed": false
        },
        {
          "address": "0x0000000000000000000000000000000000001010",
          "topics": [
            "0x4dfe1bbbcf077ddc3e01291eea2d5c70c2b422b415d95645b9adcfd678cb1d63",
            "0x0000000000000000000000000000000000000000000000000000000000001010",
            "0x0000000000000000000000008a82a574c1067bb12676d488277087ac063f21d5",
            "0x00000000000000000000000009207a6efee346cb3e4a54ac18523e3715d38b3f"
          ],
          "data": "0x0000000000000000000000000000000000000000000000000000a8bd88fef5c100000000000000000000000000000000000000000000000000865a90f0827ad00000000000000000000000000000000000000000000000f5018e360d16a654f00000000000000000000000000000000000000000000000000085b1d36783850f0000000000000000000000000000000000000000000000f5018edeca9fa54ab1",
          "blockHash": "0x9e35286d148f6f17feb583d88eff044bd50361470d94b15e35b0369288271236",
          "blockNumber": "0x714ce4",
          "transactionHash": "0xd3cc939db2ed9ac66eac40fc8538e1a35adc179052afc92fe071586b39e64fc1",
          "transactionIndex": "0x2",
          "logIndex": "0x16",
          "removed": false
        }
      ],
      "logsBloom": "0x00000000000010000000000000000000000000000000000000000000000000000000000000000000000000000000000000008000000000000000010000200000000000000000000000000000000000800000000000020000000100000000000000200000000800000000020000000000000000000000000080000000000000000000000000000000000000000100000000004000000000000000000000000000220000000000000000000000000000000000000000000000000000000000004000000000000000000001000000000008000000800000000000100000000010000010000000000000000000010000000000000000000000000000000000100000",
      "type": "0x2",
      "transactionHash": "0xd3cc939db2ed9ac66eac40fc8538e1a35adc179052afc92fe071586b39e64fc1",
      "transactionIndex": "0x2",
      "blockHash": "0x9e35286d148f6f17feb583d88eff044bd50361470d94b15e35b0369288271236",
      "blockNumber": "0x714ce4",
      "gasUsed": "0xb52f",
      "effectiveGasPrice": "0xee6b281e",
      "from": "0x8a82a574c1067bb12676d488277087ac063f21d5",
      "to": "0xb1b104d79de24513338bdb6cb9df468110010e5f",
      "contractAddress": null
    },
    {
      "status": "0x1",
      "cumulativeGasUsed": "0x789c3",
      "logs": [
        {
          "address": "0xb1b104d79de24513338bdb6cb9df468110010e5f",
          "topics": [
            "0xddf252ad1be2c89b69c2b068fc378daa952ba7f163c4a11628f55a4df523b3ef",
            "0x0000000000000000000000008a82a574c1067bb12676d488277087ac063f21d5",
            "0x0000000000000000000000002de7f048e4d99784983cfe24193b6e8818f91503"
          ],
          "data": "0x0000000000000000000000000000000000000000000000233c8fe42703e80000",
          "blockHash": "0x9e35286d148f6f17feb583d88eff044bd50361470d94b15e35b0369288271236",
          "blockNumber": "0x714ce4",
          "transactionHash": "0x9cf9b26e9ba576abb874e6aea6abf7d28edadfea83f2eb75774d9fe91170e371",
          "transactionIndex": "0x3",
          "logIndex": "0x17",
          "removed": false
        },
        {
          "address": "0x0000000000000000000000000000000000001010",
          "topics": [
            "0x4dfe1bbbcf077ddc3e01291eea2d5c70c2b422b415d95645b9adcfd678cb1d63",
            "0x0000000000000000000000000000000000000000000000000000000000001010",
            "0x0000000000000000000000008a82a574c1067bb12676d488277087ac063f21d5",
            "0x00000000000000000000000009207a6efee346cb3e4a54ac18523e3715d38b3f"
          ],
          "data": "0x00000000000000000000000000000000000000000000000000016153e9538abe0000000000000000000000000000000000000000000000000085b1d36778e74e0000000000000000000000000000000000000000000000f5018edeca9fa54ab10000000000000000000000000000000000000000000000000084507f7e255c900000000000000000000000000000000000000000000000f50190401e88f8d56f",
          "blockHash": "0x9e35286d148f6f17feb583d88eff044bd50361470d94b15e35b0369288271236",
          "blockNumber": "0x714ce4",
          "transactionHash": "0x9cf9b26e9ba576abb874e6aea6abf7d28edadfea83f2eb75774d9fe91170e371",
          "transactionIndex": "0x3",
          "logIndex": "0x18",
          "removed": false
        }
      ],
      "logsBloom": "0x00000000000010000000000000000000000000000000000000000000000000000000000000000000000000000000000000008000000000000000010000000000000000000000000000000008000000800000000000020000000100000000000000200000000800000000020000000000000000000000000080000010000000000000000000000000000000000100000000004000000000000000000000000000200000000000000000000000000000000000000000000000000000000000004000000002000000000001000000000008000000800000000000100000000010000000000000000000000000010000000000000000000000000000000000100000",
      "type": "0x2",
      "transactionHash": "0x9cf9b26e9ba576abb874e6aea6abf7d28edadfea83f2eb75774d9fe91170e371",
      "transactionIndex": "0x3",
      "blockHash": "0x9e35286d148f6f17feb583d88eff044bd50361470d94b15e35b0369288271236",
      "blockNumber": "0x714ce4",
      "gasUsed": "0x17b62",
      "effectiveGasPrice": "0xee6b281e",
      "from": "0x8a82a574c1067bb12676d488277087ac063f21d5",
      "to": "0x2de7f048e4d99784983cfe24193b6e8818f91503",
      "contractAddress": null
    }
  ],
  "libraries": [],
  "pending": [],
  "returns": {},
  "timestamp": 1716533491,
  "chain": 80002,
  "commit": "ee4b648"
}