{
  "transactions": [
    {
      "hash": "0x7214e6089b97aebe7c68841006b4d42176033231ebc2137bd4f8e2f563035203",
      "transactionType": "CREATE",
      "contractName": "OptionsFactory",
      "contractAddress": "0x4633bfbb343f131def95ac1fd518ed4495092063",
      "function": null,
      "arguments": [
        "0xB1b104D79dE24513338bdB6CB9Df468110010E5F"
      ],
      "transaction": {
        "from": "0x8a82a574c1067bb12676d488277087ac063f21d5",
        "gas": "0x33064d",
        "value": "0x0",
        "input": "0x608060405234801561001057600080fd5b50604051612dbe380380612dbe83398101604081905261002f916100d4565b338061005557604051631e4fbdf760e01b81526000600482015260240160405180910390fd5b61005e81610084565b50600380546001600160a01b0319166001600160a01b0392909216919091179055610104565b600080546001600160a01b038381166001600160a01b0319831681178455604051919092169283917f8be0079c531659141344cd1fd0a4f28419497f9722a3daafe3b4186f6b6457e09190a35050565b6000602082840312156100e657600080fd5b81516001600160a01b03811681146100fd57600080fd5b9392505050565b612cab806101136000396000f3fe608060405234801561001057600080fd5b50600436106100b45760003560e01c8063a20c6a4e11610071578063a20c6a4e14610155578063b180783d14610168578063bc26c9e91461017b578063bcfa1a9c1461018e578063cb1b091714610196578063f2fde38b146101a957600080fd5b806301374518146100b95780632e222242146100ff57806367a74ddc14610114578063715018a6146101275780638da5cb5b1461012f57806394d0a2ef14610140575b600080fd5b6100e26100c7366004610660565b6004602052600090815260409020546001600160a01b031681565b6040516001600160a01b0390911681526020015b60405180910390f35b61011261010d366004610682565b6101bc565b005b6101126101223660046106c4565b6102fe565b610112610334565b6000546001600160a01b03166100e2565b610148610348565b6040516100f691906106f7565b6100e2610163366004610744565b6103aa565b6003546100e2906001600160a01b031681565b610112610189366004610682565b6103d4565b6101486104ff565b6100e26101a4366004610744565b61055f565b6101126101b7366004610660565b61056f565b6001600160a01b0380861660009081526004602052604090205416806101fd5760405162461bcd60e51b81526004016101f49061075d565b60405180910390fd5b6000863387878787600360009054906101000a90046001600160a01b0316886040516102289061062a565b6102399897969594939291906107a0565b604051809103906000f080158015610255573d6000803e3d6000fd5b50600280546001810182556000919091527f405787fa12a823e0f2b7631cc41b3ba8828b3321ca811111fa75cd3aa3bb5ace0180546001600160a01b0319166001600160a01b03838116918217909255604080518a8152602081018a905290810188905260608101879052929350908916917f4e9540aa643aeac5a78b6df8f91c8dbd3b01c3eaf0a85da99977200d70c6424c906080015b60405180910390a350505050505050565b6103066105ad565b6001600160a01b03918216600090815260046020526040902080546001600160a01b03191691909216179055565b61033c6105ad565b61034660006105da565b565b606060028054806020026020016040519081016040528092919081815260200182805480156103a057602002820191906000526020600020905b81546001600160a01b03168152600190910190602001808311610382575b5050505050905090565b600281815481106103ba57600080fd5b6000918252602090912001546001600160a01b0316905081565b6001600160a01b03808616600090815260046020526040902054168061040c5760405162461bcd60e51b81526004016101f49061075d565b6000863387878787600360009054906101000a90046001600160a01b03168860405161043790610637565b6104489897969594939291906107a0565b604051809103906000f080158015610464573d6000803e3d6000fd5b506001805480820182556000919091527fb10e2d527612073b26eecdfd717e6a320cf44b4afac2b0732d9fcbe2b7fa0cf60180546001600160a01b0319166001600160a01b03838116918217909255604080518a8152602081018a905290810188905260608101879052929350908916917fefac1948589d929f3b3c6b23b83791de693ec63cc94bbca1d7e7be195f8236d2906080016102ed565b606060018054806020026020016040519081016040528092919081815260200182805480156103a0576020028201919060005260206000209081546001600160a01b03168152600190910190602001808311610382575050505050905090565b600181815481106103ba57600080fd5b6105776105ad565b6001600160a01b0381166105a157604051631e4fbdf760e01b8152600060048201526024016101f4565b6105aa816105da565b50565b6000546001600160a01b031633146103465760405163118cdaa760e01b81523360048201526024016101f4565b600080546001600160a01b038381166001600160a01b0319831681178455604051919092169283917f8be0079c531659141344cd1fd0a4f28419497f9722a3daafe3b4186f6b6457e09190a35050565b61125d806107e983390190565b61123080611a4683390190565b80356001600160a01b038116811461065b57600080fd5b919050565b60006020828403121561067257600080fd5b61067b82610644565b9392505050565b600080600080600060a0868803121561069a57600080fd5b6106a386610644565b97602087013597506040870135966060810135965060800135945092505050565b600080604083850312156106d757600080fd5b6106e083610644565b91506106ee60208401610644565b90509250929050565b6020808252825182820181905260009190848201906040850190845b818110156107385783516001600160a01b031683529284019291840191600101610713565b50909695505050505050565b60006020828403121561075657600080fd5b5035919050565b60208082526023908201527f5072696365206f7261636c65206e6f742073657420666f7220746869732061736040820152621cd95d60ea1b606082015260800190565b6001600160a01b039889168152968816602088015260408701959095526060860193909352608085019190915260a0840152831660c083015290911660e0820152610100019056fe608060405234801561001057600080fd5b506040516200125d3803806200125d833981016040819052610031916100c4565b600080546001600160a01b03998a166001600160a01b03199182161790915560018054988a1698821698909817909755600295909555600393909355600491909155600555600680546001600160b81b0319169055600780549185169184169190911790556008805491909316911617905561013f565b80516001600160a01b03811681146100bf57600080fd5b919050565b600080600080600080600080610100898b0312156100e157600080fd5b6100ea896100a8565b97506100f860208a016100a8565b965060408901519550606089015194506080890151935060a0890151925061012260c08a016100a8565b915061013060e08a016100a8565b90509295985092959890939650565b61110e806200014f6000396000f3fe608060405234801561001057600080fd5b506004361061012c5760003560e01c80634665096d116100ad578063b180783d11610071578063b180783d1461024e578063c52987cf14610261578063e0a73a931461026a578063e1c7392a14610273578063ea8a1af01461027b57600080fd5b80634665096d1461021a57806361461954146102235780637150d8ae1461022b578063a6f2ae3a1461023e578063a9fc8ddb1461024657600080fd5b806331a38c89116100f457806331a38c89146101b357806334976b9b146101d757806338d52e0f146101eb5780633ccfd60b146101fe57806343c885ba1461020657600080fd5b806302d05d3f146101315780630f460b971461016157806317fc45e2146101765780631a6952301461018d5780632630c12f146101a0575b600080fd5b600154610144906001600160a01b031681565b6040516001600160a01b0390911681526020015b60405180910390f35b61017461016f366004610d5e565b610283565b005b61017f60045481565b604051908152602001610158565b61017461019b366004610d77565b610307565b600854610144906001600160a01b031681565b6006546101c790600160b01b900460ff1681565b6040519015158152602001610158565b6006546101c790600160a81b900460ff1681565b600054610144906001600160a01b031681565b61017461039e565b6006546101c790600160a01b900460ff1681565b61017f60055481565b61017461057e565b600654610144906001600160a01b031681565b610174610848565b61017f610a16565b600754610144906001600160a01b031681565b61017f60035481565b61017f60025481565b610174610aae565b610174610c34565b6001546001600160a01b031633146102b65760405162461bcd60e51b81526004016102ad90610da7565b60405180910390fd5b600654600160a81b900460ff16156102e05760405162461bcd60e51b81526004016102ad90610def565b6005544211156103025760405162461bcd60e51b81526004016102ad90610e26565b600255565b6006546001600160a01b031633146103315760405162461bcd60e51b81526004016102ad90610e4e565b600654600160a01b900460ff1661035a5760405162461bcd60e51b81526004016102ad90610e94565b60055442111561037c5760405162461bcd60e51b81526004016102ad90610e26565b600680546001600160a01b0319166001600160a01b0392909216919091179055565b6001546001600160a01b031633146103c85760405162461bcd60e51b81526004016102ad90610da7565b600654600160a01b900460ff166103f15760405162461bcd60e51b81526004016102ad90610e94565b600554421161043b5760405162461bcd60e51b815260206004820152601660248201527513dc1d1a5bdb881b9bdd08195e1c1a5c9959081e595d60521b60448201526064016102ad565b600654600160b01b900460ff16156104955760405162461bcd60e51b815260206004820152601760248201527f4f7074696f6e20616c726561647920657865637574656400000000000000000060448201526064016102ad565b6007546001546001600160a01b039182169163a9059cbb91166104b6610a16565b6040516001600160e01b031960e085901b1681526001600160a01b03909216600483015260248201526044016020604051808303816000875af1158015610501573d6000803e3d6000fd5b505050506040513d601f19601f820116820180604052508101906105259190610ee0565b6105695760405162461bcd60e51b8152602060048201526015602482015274105cdcd95d081d1c985b9cd9995c8819985a5b1959605a1b60448201526064016102ad565b6006805460ff60b01b1916600160b01b179055565b6006546001600160a01b031633146105a85760405162461bcd60e51b81526004016102ad90610e4e565b600654600160b01b900460ff16156106025760405162461bcd60e51b815260206004820152601b60248201527f436f6e747261637420686173206265656e20657865637574656421000000000060448201526064016102ad565b600654600160a01b900460ff1661062b5760405162461bcd60e51b81526004016102ad90610e94565b60055442111561064d5760405162461bcd60e51b81526004016102ad90610e26565b610655610cd3565b6106a15760405162461bcd60e51b815260206004820152601a60248201527f4f7074696f6e206973206f7574206f6620746865206d6f6e657900000000000060448201526064016102ad565b60006106ab610a16565b60075460065460405163a9059cbb60e01b81526001600160a01b03918216600482015260248101849052929350169063a9059cbb906044016020604051808303816000875af1158015610702573d6000803e3d6000fd5b505050506040513d601f19601f820116820180604052508101906107269190610ee0565b61076a5760405162461bcd60e51b8152602060048201526015602482015274105cdcd95d081d1c985b9cd9995c8819985a5b1959605a1b60448201526064016102ad565b600054600654600154600480546040516323b872dd60e01b81526001600160a01b0394851692810192909252918316602482015260448101919091529116906323b872dd906064016020604051808303816000875af11580156107d1573d6000803e3d6000fd5b505050506040513d601f19601f820116820180604052508101906107f59190610ee0565b6108325760405162461bcd60e51b815260206004820152600e60248201526d14185e5b595b9d0819985a5b195960921b60448201526064016102ad565b506006805460ff60b01b1916600160b01b179055565b600654600160a81b900460ff16156108725760405162461bcd60e51b81526004016102ad90610def565b600654600160a01b900460ff1661089b5760405162461bcd60e51b81526004016102ad90610e94565b6005544211156108bd5760405162461bcd60e51b81526004016102ad90610e26565b6001546001600160a01b031633036109235760405162461bcd60e51b815260206004820152602360248201527f43726561746f722063616e6e6f7420627579207468656972206f776e206f707460448201526234b7b760e91b60648201526084016102ad565b6007546001546002546040516323b872dd60e01b81523360048201526001600160a01b03928316602482015260448101919091529116906323b872dd906064016020604051808303816000875af1158015610982573d6000803e3d6000fd5b505050506040513d601f19601f820116820180604052508101906109a69190610ee0565b6109f25760405162461bcd60e51b815260206004820152601760248201527f5072656d69756d207472616e73666572206661696c656400000000000000000060448201526064016102ad565b6006805460ff60a81b193316600161ff0160a01b031990911617600160a81b179055565b6008546040805163313ce56760e01b815290516000926001600160a01b03169163313ce5679160048083019260209291908290030181865afa158015610a60573d6000803e3d6000fd5b505050506040513d601f19601f82011682018060405250810190610a849190610f02565b610a8f90600a611021565b600454600354610a9f9190611030565b610aa99190611047565b905090565b6001546001600160a01b03163314610ad85760405162461bcd60e51b81526004016102ad90610da7565b600654600160a01b900460ff1615610b475760405162461bcd60e51b815260206004820152602c60248201527f4f7074696f6e20636f6e74726163742068617320616c7265616479206265656e60448201526b081a5b9a5d1a585b1a5e995960a21b60648201526084016102ad565b6007546001546001600160a01b03918216916323b872dd911630610b69610a16565b6040516001600160e01b031960e086901b1681526001600160a01b03938416600482015292909116602483015260448201526064016020604051808303816000875af1158015610bbd573d6000803e3d6000fd5b505050506040513d601f19601f82011682018060405250810190610be19190610ee0565b610c1f5760405162461bcd60e51b815260206004820152600f60248201526e151c985b9cd9995c8819985a5b1959608a1b60448201526064016102ad565b6006805460ff60a01b1916600160a01b179055565b6001546001600160a01b03163314610c5e5760405162461bcd60e51b81526004016102ad90610da7565b600654600160a81b900460ff1615610c885760405162461bcd60e51b81526004016102ad90610def565b600654600160a01b900460ff16610cb15760405162461bcd60e51b81526004016102ad90610e94565b6005544211156104955760405162461bcd60e51b81526004016102ad90610e26565b600080600860009054906101000a90046001600160a01b03166001600160a01b031663feaf968c6040518163ffffffff1660e01b815260040160a060405180830381865afa158015610d29573d6000803e3d6000fd5b505050506040513d601f19601f82011682018060405250810190610d4d9190611088565b505060035490911115949350505050565b600060208284031215610d7057600080fd5b5035919050565b600060208284031215610d8957600080fd5b81356001600160a01b0381168114610da057600080fd5b9392505050565b60208082526028908201527f4f6e6c79207468652063726561746f722063616e2063616c6c20746869732066604082015267756e6374696f6e2160c01b606082015260800190565b60208082526019908201527f436f6e747261637420686173206265656e20626f756768742100000000000000604082015260600190565b6020808252600e908201526d13dc1d1a5bdb88195e1c1a5c995960921b604082015260600190565b60208082526026908201527f4f6e6c79207468652062757965722063616e2063616c6c20746869732066756e6040820152656374696f6e2160d01b606082015260800190565b6020808252602c908201527f436f6e747261637420686173206e6f74206265656e20696e697465642062792060408201526b7468652063726561746f722160a01b606082015260800190565b600060208284031215610ef257600080fd5b81518015158114610da057600080fd5b600060208284031215610f1457600080fd5b815160ff81168114610da057600080fd5b634e487b7160e01b600052601160045260246000fd5b600181815b80851115610f76578160001904821115610f5c57610f5c610f25565b80851615610f6957918102915b93841c9390800290610f40565b509250929050565b600082610f8d5750600161101b565b81610f9a5750600061101b565b8160018114610fb05760028114610fba57610fd6565b600191505061101b565b60ff841115610fcb57610fcb610f25565b50506001821b61101b565b5060208310610133831016604e8410600b8410161715610ff9575081810a61101b565b6110038383610f3b565b806000190482111561101757611017610f25565b0290505b92915050565b6000610da060ff841683610f7e565b808202811582820484141761101b5761101b610f25565b60008261106457634e487b7160e01b600052601260045260246000fd5b500490565b805169ffffffffffffffffffff8116811461108357600080fd5b919050565b600080600080600060a086880312156110a057600080fd5b6110a986611069565b94506020860151935060408601519250606086015191506110cc60808701611069565b9050929550929590935056fea2646970667358221220fcc11d5575f001254c0fb603801fe1af705e17d5a90793d1fdd5ff88e6332b9e64736f6c63430008180033608060405234801561001057600080fd5b506040516200123038038062001230833981016040819052610031916100c4565b600080546001600160a01b03998a166001600160a01b03199182161790915560018054988a1698821698909817909755600295909555600393909355600491909155600555600680546001600160b81b0319169055600780549185169184169190911790556008805491909316911617905561013f565b80516001600160a01b03811681146100bf57600080fd5b919050565b600080600080600080600080610100898b0312156100e157600080fd5b6100ea896100a8565b97506100f860208a016100a8565b965060408901519550606089015194506080890151935060a0890151925061012260c08a016100a8565b915061013060e08a016100a8565b90509295985092959890939650565b6110e1806200014f6000396000f3fe608060405234801561001057600080fd5b506004361061012c5760003560e01c80634665096d116100ad578063b180783d11610071578063b180783d1461024e578063c52987cf14610261578063e0a73a931461026a578063e1c7392a14610273578063ea8a1af01461027b57600080fd5b80634665096d1461021a57806361461954146102235780637150d8ae1461022b578063a6f2ae3a1461023e578063a9fc8ddb1461024657600080fd5b806331a38c89116100f457806331a38c89146101b357806334976b9b146101d757806338d52e0f146101eb5780633ccfd60b146101fe57806343c885ba1461020657600080fd5b806302d05d3f146101315780630f460b971461016157806317fc45e2146101765780631a6952301461018d5780632630c12f146101a0575b600080fd5b600154610144906001600160a01b031681565b6040516001600160a01b0390911681526020015b60405180910390f35b61017461016f366004610d31565b610283565b005b61017f60045481565b604051908152602001610158565b61017461019b366004610d4a565b610307565b600854610144906001600160a01b031681565b6006546101c790600160b01b900460ff1681565b6040519015158152602001610158565b6006546101c790600160a81b900460ff1681565b600054610144906001600160a01b031681565b61017461039e565b6006546101c790600160a01b900460ff1681565b61017f60055481565b61017461056b565b600654610144906001600160a01b031681565b610174610832565b61017f610a00565b600754610144906001600160a01b031681565b61017f60035481565b61017f60025481565b610174610a98565b610174610c07565b6001546001600160a01b031633146102b65760405162461bcd60e51b81526004016102ad90610d7a565b60405180910390fd5b600654600160a81b900460ff16156102e05760405162461bcd60e51b81526004016102ad90610dc2565b6005544211156103025760405162461bcd60e51b81526004016102ad90610df9565b600255565b6006546001600160a01b031633146103315760405162461bcd60e51b81526004016102ad90610e21565b600654600160a01b900460ff1661035a5760405162461bcd60e51b81526004016102ad90610e67565b60055442111561037c5760405162461bcd60e51b81526004016102ad90610df9565b600680546001600160a01b0319166001600160a01b0392909216919091179055565b6001546001600160a01b031633146103c85760405162461bcd60e51b81526004016102ad90610d7a565b600654600160a01b900460ff166103f15760405162461bcd60e51b81526004016102ad90610e67565b600554421161043b5760405162461bcd60e51b815260206004820152601660248201527513dc1d1a5bdb881b9bdd08195e1c1a5c9959081e595d60521b60448201526064016102ad565b600654600160b01b900460ff16156104955760405162461bcd60e51b815260206004820152601760248201527f4f7074696f6e20616c726561647920657865637574656400000000000000000060448201526064016102ad565b6000546001546004805460405163a9059cbb60e01b81526001600160a01b0393841692810192909252602482015291169063a9059cbb906044016020604051808303816000875af11580156104ee573d6000803e3d6000fd5b505050506040513d601f19601f820116820180604052508101906105129190610eb3565b6105565760405162461bcd60e51b8152602060048201526015602482015274105cdcd95d081d1c985b9cd9995c8819985a5b1959605a1b60448201526064016102ad565b6006805460ff60b01b1916600160b01b179055565b6006546001600160a01b031633146105955760405162461bcd60e51b81526004016102ad90610e21565b600654600160b01b900460ff16156105ef5760405162461bcd60e51b815260206004820152601b60248201527f436f6e747261637420686173206265656e20657865637574656421000000000060448201526064016102ad565b600654600160a01b900460ff166106185760405162461bcd60e51b81526004016102ad90610e67565b60055442111561063a5760405162461bcd60e51b81526004016102ad90610df9565b610642610ca6565b61068e5760405162461bcd60e51b815260206004820152601a60248201527f4f7074696f6e206973206f7574206f6620746865206d6f6e657900000000000060448201526064016102ad565b6000610698610a00565b6007546006546001546040516323b872dd60e01b81526001600160a01b03928316600482015290821660248201526044810184905292935016906323b872dd906064016020604051808303816000875af11580156106fa573d6000803e3d6000fd5b505050506040513d601f19601f8201168201806040525081019061071e9190610eb3565b61075b5760405162461bcd60e51b815260206004820152600e60248201526d14185e5b595b9d0819985a5b195960921b60448201526064016102ad565b6000546006546004805460405163a9059cbb60e01b81526001600160a01b0393841692810192909252602482015291169063a9059cbb906044016020604051808303816000875af11580156107b4573d6000803e3d6000fd5b505050506040513d601f19601f820116820180604052508101906107d89190610eb3565b61081c5760405162461bcd60e51b8152602060048201526015602482015274105cdcd95d081d1c985b9cd9995c8819985a5b1959605a1b60448201526064016102ad565b506006805460ff60b01b1916600160b01b179055565b600654600160a81b900460ff161561085c5760405162461bcd60e51b81526004016102ad90610dc2565b600654600160a01b900460ff166108855760405162461bcd60e51b81526004016102ad90610e67565b6005544211156108a75760405162461bcd60e51b81526004016102ad90610df9565b6001546001600160a01b0316330361090d5760405162461bcd60e51b815260206004820152602360248201527f43726561746f722063616e6e6f7420627579207468656972206f776e206f707460448201526234b7b760e91b60648201526084016102ad565b6007546001546002546040516323b872dd60e01b81523360048201526001600160a01b03928316602482015260448101919091529116906323b872dd906064016020604051808303816000875af115801561096c573d6000803e3d6000fd5b505050506040513d601f19601f820116820180604052508101906109909190610eb3565b6109dc5760405162461bcd60e51b815260206004820152601760248201527f5072656d69756d207472616e73666572206661696c656400000000000000000060448201526064016102ad565b6006805460ff60a81b193316600161ff0160a01b031990911617600160a81b179055565b6008546040805163313ce56760e01b815290516000926001600160a01b03169163313ce5679160048083019260209291908290030181865afa158015610a4a573d6000803e3d6000fd5b505050506040513d601f19601f82011682018060405250810190610a6e9190610ed5565b610a7990600a610ff4565b600454600354610a899190611003565b610a93919061101a565b905090565b6001546001600160a01b03163314610ac25760405162461bcd60e51b81526004016102ad90610d7a565b600654600160a01b900460ff1615610b315760405162461bcd60e51b815260206004820152602c60248201527f4f7074696f6e20636f6e74726163742068617320616c7265616479206265656e60448201526b081a5b9a5d1a585b1a5e995960a21b60648201526084016102ad565b600054600154600480546040516323b872dd60e01b81526001600160a01b039384169281019290925230602483015260448201529116906323b872dd906064016020604051808303816000875af1158015610b90573d6000803e3d6000fd5b505050506040513d601f19601f82011682018060405250810190610bb49190610eb3565b610bf25760405162461bcd60e51b815260206004820152600f60248201526e151c985b9cd9995c8819985a5b1959608a1b60448201526064016102ad565b6006805460ff60a01b1916600160a01b179055565b6001546001600160a01b03163314610c315760405162461bcd60e51b81526004016102ad90610d7a565b600654600160a81b900460ff1615610c5b5760405162461bcd60e51b81526004016102ad90610dc2565b600654600160a01b900460ff16610c845760405162461bcd60e51b81526004016102ad90610e67565b6005544211156104955760405162461bcd60e51b81526004016102ad90610df9565b600080600860009054906101000a90046001600160a01b03166001600160a01b031663feaf968c6040518163ffffffff1660e01b815260040160a060405180830381865afa158015610cfc573d6000803e3d6000fd5b505050506040513d601f19601f82011682018060405250810190610d20919061105b565b505060035490911015949350505050565b600060208284031215610d4357600080fd5b5035919050565b600060208284031215610d5c57600080fd5b81356001600160a01b0381168114610d7357600080fd5b9392505050565b60208082526028908201527f4f6e6c79207468652063726561746f722063616e2063616c6c20746869732066604082015267756e6374696f6e2160c01b606082015260800190565b60208082526019908201527f436f6e747261637420686173206265656e20626f756768742100000000000000604082015260600190565b6020808252600e908201526d13dc1d1a5bdb88195e1c1a5c995960921b604082015260600190565b60208082526026908201527f4f6e6c79207468652062757965722063616e2063616c6c20746869732066756e6040820152656374696f6e2160d01b606082015260800190565b6020808252602c908201527f436f6e747261637420686173206e6f74206265656e20696e697465642062792060408201526b7468652063726561746f722160a01b606082015260800190565b600060208284031215610ec557600080fd5b81518015158114610d7357600080fd5b600060208284031215610ee757600080fd5b815160ff81168114610d7357600080fd5b634e487b7160e01b600052601160045260246000fd5b600181815b80851115610f49578160001904821115610f2f57610f2f610ef8565b80851615610f3c57918102915b93841c9390800290610f13565b509250929050565b600082610f6057506001610fee565b81610f6d57506000610fee565b8160018114610f835760028114610f8d57610fa9565b6001915050610fee565b60ff841115610f9e57610f9e610ef8565b50506001821b610fee565b5060208310610133831016604e8410600b8410161715610fcc575081810a610fee565b610fd68383610f0e565b8060001904821115610fea57610fea610ef8565b0290505b92915050565b6000610d7360ff841683610f51565b8082028115828204841417610fee57610fee610ef8565b60008261103757634e487b7160e01b600052601260045260246000fd5b500490565b805169ffffffffffffffffffff8116811461105657600080fd5b919050565b600080600080600060a0868803121561107357600080fd5b61107c8661103c565b945060208601519350604086015192506060860151915061109f6080870161103c565b9050929550929590935056fea26469706673582212205ecbbff08797da261812942f2a7fc534a6a18d90685218eafd7f04bad8b81cb664736f6c63430008180033a2646970667358221220a0d7c7aaeff4e50609549e1d2ebab5a2e774f260e9f23f461b26531f02eb0e4464736f6c63430008180033000000000000000000000000b1b104d79de24513338bdb6cb9df468110010e5f",
        "nonce": "0xe",
        "chainId": "0x13882"
      },
      "additionalContracts": [],
      "isFixedGasLimit": false
    },
    {
      "hash": "0x6f07abfbab1a1285fc3f8a78fa325208ee5893af5799e80486833aeeff3c48ea",
      "transactionType": "CALL",
      "contractName": "OptionsFactory",
      "contractAddress": "0x4633bfbb343f131def95ac1fd518ed4495092063",
      "function": "setPriceOracle(address,address)",
      "arguments": [
        "0x7A9294c8305F9ee1d245E0f0848E00B1149818C7",
        "0xe7656e23fE8077D438aEfbec2fAbDf2D8e070C4f"
      ],
      "transaction": {
        "from": "0x8a82a574c1067bb12676d488277087ac063f21d5",
        "to": "0x4633bfbb343f131def95ac1fd518ed4495092063",
        "gas": "0xfb9f",
        "value": "0x0",
        "input": "0x67a74ddc0000000000000000000000007a9294c8305f9ee1d245e0f0848e00b1149818c7000000000000000000000000e7656e23fe8077d438aefbec2fabdf2d8e070c4f",
        "nonce": "0xf",
        "chainId": "0x13882"
      },
      "additionalContracts": [],
      "isFixedGasLimit": false
    },
    {
      "hash": "0x8a78d081755ababc077e6cf107ce83473bdbe019a07399b67e04c739832698fb",
      "transactionType": "CALL",
      "contractName": "OptionsFactory",
      "contractAddress": "0x4633bfbb343f131def95ac1fd518ed4495092063",
      "function": "setPriceOracle(address,address)",
      "arguments": [
        "0x3b5dAAE6d0a1B98EF8B2E6B65206c93c8cE55841",
        "0xF0d50568e3A7e8259E16663972b11910F89BD8e7"
      ],
      "transaction": {
        "from": "0x8a82a574c1067bb12676d488277087ac063f21d5",
        "to": "0x4633bfbb343f131def95ac1fd518ed4495092063",
        "gas": "0xfbaf",
        "value": "0x0",
        "input": "0x67a74ddc0000000000000000000000003b5daae6d0a1b98ef8b2e6b65206c93c8ce55841000000000000000000000000f0d50568e3a7e8259e16663972b11910f89bd8e7",
        "nonce": "0x10",
        "chainId": "0x13882"
      },
      "additionalContracts": [],
      "isFixedGasLimit": false
    },
    {
      "hash": "0xf0d8f6ed9ed7bf35a2438c5c32dc6f79b23ffc0c352b3ba9ba2b8a0524576aef",
      "transactionType": "CALL",
      "contractName": "OptionsFactory",
      "contractAddress": "0x4633bfbb343f131def95ac1fd518ed4495092063",
      "function": "setPriceOracle(address,address)",
      "arguments": [
        "0xc302BD52985e75C1f563a47f2b5dfC4e2b5C6C7E",
        "0xF8e2648F3F157D972198479D5C7f0D721657Af67"
      ],
      "transaction": {
        "from": "0x8a82a574c1067bb12676d488277087ac063f21d5",
        "to": "0x4633bfbb343f131def95ac1fd518ed4495092063",
        "gas": "0xfbaf",
        "value": "0x0",
        "input": "0x67a74ddc000000000000000000000000c302bd52985e75c1f563a47f2b5dfc4e2b5c6c7e000000000000000000000000f8e2648f3f157d972198479d5c7f0d721657af67",
        "nonce": "0x11",
        "chainId": "0x13882"
      },
      "additionalContracts": [],
      "isFixedGasLimit": false
    },
    {
      "hash": "0xa07c55d642edc91232d34709678eb8b923a06320cc57ba0ec07b142cfae5b5d0",
      "transactionType": "CALL",
      "contractName": "OptionsFactory",
      "contractAddress": "0x4633bfbb343f131def95ac1fd518ed4495092063",
      "function": "setPriceOracle(address,address)",
      "arguments": [
        "0x5934C2Ca4c4F7b22526f6ABfD63bB8075a62e65b",
        "0x001382149eBa3441043c1c66972b4772963f5D43"
      ],
      "transaction": {
        "from": "0x8a82a574c1067bb12676d488277087ac063f21d5",
        "to": "0x4633bfbb343f131def95ac1fd518ed4495092063",
        "gas": "0xfb9f",
        "value": "0x0",
        "input": "0x67a74ddc0000000000000000000000005934c2ca4c4f7b22526f6abfd63bb8075a62e65b000000000000000000000000001382149eba3441043c1c66972b4772963f5d43",
        "nonce": "0x12",
        "chainId": "0x13882"
      },
      "additionalContracts": [],
      "isFixedGasLimit": false
    },
    {
      "hash": "0x3b456fa75ca4216d59464c6a2e93326bae4fa3fe525397a1913fe930aebfffd2",
      "transactionType": "CALL",
      "contractName": "OptionsFactory",
      "contractAddress": "0x4633bfbb343f131def95ac1fd518ed4495092063",
      "function": "setPriceOracle(address,address)",
      "arguments": [
        "0x19Ed533D9f274DC0d1b59FB9C0d5D1C27cba8bb1",
        "0xc2e2848e28B9fE430Ab44F55a8437a33802a219C"
      ],
      "transaction": {
        "from": "0x8a82a574c1067bb12676d488277087ac063f21d5",
        "to": "0x4633bfbb343f131def95ac1fd518ed4495092063",
        "gas": "0xfbaf",
        "value": "0x0",
        "input": "0x67a74ddc00000000000000000000000019ed533d9f274dc0d1b59fb9c0d5d1c27cba8bb1000000000000000000000000c2e2848e28b9fe430ab44f55a8437a33802a219c",
        "nonce": "0x13",
        "chainId": "0x13882"
      },
      "additionalContracts": [],
      "isFixedGasLimit": false
    },
    {
      "hash": "0x61f38241d0b1f3e2d638e8448ec84942969bef7f04584111ba7991bc286a7c00",
      "transactionType": "CALL",
      "contractName": "OptionsFactory",
      "contractAddress": "0x4633bfbb343f131def95ac1fd518ed4495092063",
      "function": "setPriceOracle(address,address)",
      "arguments": [
        "0xAB5aBA3B6ABB3CdaF5F2176A693B3C012663B6c3",
        "0xeA8C8E97681863FF3cbb685e3854461976EBd895"
      ],
      "transaction": {
        "from": "0x8a82a574c1067bb12676d488277087ac063f21d5",
        "to": "0x4633bfbb343f131def95ac1fd518ed4495092063",
        "gas": "0xfbaf",
        "value": "0x0",
        "input": "0x67a74ddc000000000000000000000000ab5aba3b6abb3cdaf5f2176a693b3c012663b6c3000000000000000000000000ea8c8e97681863ff3cbb685e3854461976ebd895",
        "nonce": "0x14",
        "chainId": "0x13882"
      },
      "additionalContracts": [],
      "isFixedGasLimit": false
    }
  ],
  "receipts": [
    {
      "status": "0x1",
      "cumulativeGasUsed": "0x2742cb",
      "logs": [
        {
          "address": "0x4633bfbb343f131def95ac1fd518ed4495092063",
          "topics": [
            "0x8be0079c531659141344cd1fd0a4f28419497f9722a3daafe3b4186f6b6457e0",
            "0x0000000000000000000000000000000000000000000000000000000000000000",
            "0x0000000000000000000000008a82a574c1067bb12676d488277087ac063f21d5"
          ],
          "data": "0x",
          "blockHash": "0x0d4c661997839d99703ed5ad2b376e0a3236357f232bfcd1cf678907becdd8bf",
          "blockNumber": "0x710945",
          "transactionHash": "0x7214e6089b97aebe7c68841006b4d42176033231ebc2137bd4f8e2f563035203",
          "transactionIndex": "0x0",
          "logIndex": "0x0",
          "removed": false
        },
        {
          "address": "0x0000000000000000000000000000000000001010",
          "topics": [
            "0x4dfe1bbbcf077ddc3e01291eea2d5c70c2b422b415d95645b9adcfd678cb1d63",
            "0x0000000000000000000000000000000000000000000000000000000000001010",
            "0x0000000000000000000000008a82a574c1067bb12676d488277087ac063f21d5",
            "0x000000000000000000000000915a2284d28bd93de7d6f31173b981204bb666e6"
          ],
          "data": "0x000000000000000000000000000000000000000000000000000a0e2556cd9900000000000000000000000000000000000000000000000000009dcbb33da6947900000000000000000000000000000000000000000000016ca41407d9dd579d570000000000000000000000000000000000000000000000000093bd8de6d8fb7900000000000000000000000000000000000000000000016ca41e15ff34253657",
          "blockHash": "0x0d4c661997839d99703ed5ad2b376e0a3236357f232bfcd1cf678907becdd8bf",
          "blockNumber": "0x710945",
          "transactionHash": "0x7214e6089b97aebe7c68841006b4d42176033231ebc2137bd4f8e2f563035203",
          "transactionIndex": "0x0",
          "logIndex": "0x1",
          "removed": false
        }
      ],
      "logsBloom": "0x00000000000000000010000000080000000000000000000000800004000000000000000000000000000000000000000000008000000000000000000000000000000000000000000000000000000000800001000000000000000100000000000000200000020000000000020000000800000000000000000080000000000000400000000000000000000000000000000000000000000000000000000000000000200000000000000000000000000000000000000000000000000000000000004000000000000000000001000000000800000002000000000000100000000030000000000000000000000000000000000000000000400000000000000000100000",
      "type": "0x2",
      "transactionHash": "0x7214e6089b97aebe7c68841006b4d42176033231ebc2137bd4f8e2f563035203",
      "transactionIndex": "0x0",
      "blockHash": "0x0d4c661997839d99703ed5ad2b376e0a3236357f232bfcd1cf678907becdd8bf",
      "blockNumber": "0x710945",
      "gasUsed": "0x2742cb",
      "effectiveGasPrice": "0x4190ab0f",
      "from": "0x8a82a574c1067bb12676d488277087ac063f21d5",
      "to": null,
      "contractAddress": "0x4633bfbb343f131def95ac1fd518ed4495092063"
    },
    {
      "status": "0x1",
      "cumulativeGasUsed": "0x27f8f7",
      "logs": [
        {
          "address": "0x0000000000000000000000000000000000001010",
          "topics": [
            "0x4dfe1bbbcf077ddc3e01291eea2d5c70c2b422b415d95645b9adcfd678cb1d63",
            "0x0000000000000000000000000000000000000000000000000000000000001010",
            "0x0000000000000000000000008a82a574c1067bb12676d488277087ac063f21d5",
            "0x000000000000000000000000915a2284d28bd93de7d6f31173b981204bb666e6"
          ],
          "data": "0x00000000000000000000000000000000000000000000000000002ea81e6f64000000000000000000000000000000000000000000000000000093bd8de48c119400000000000000000000000000000000000000000000016ca41e15ff3425365700000000000000000000000000000000000000000000000000938ee5c61cad9400000000000000000000000000000000000000000000016ca41e44a752949a57",
          "blockHash": "0x0d4c661997839d99703ed5ad2b376e0a3236357f232bfcd1cf678907becdd8bf",
          "blockNumber": "0x710945",
          "transactionHash": "0x6f07abfbab1a1285fc3f8a78fa325208ee5893af5799e80486833aeeff3c48ea",
          "transactionIndex": "0x1",
          "logIndex": "0x2",
          "removed": false
        }
      ],
      "logsBloom": "0x00000000000000000010000000000000000000000000000000000000000000000000000000000000000000000000000000008000000000000000000000000000000000000000000000000000000000800000000000000000000100000000000000200000000000000000020000000000000000000000000080000000000000000000000000000000000000000000000000000000000000000000000000000000200000000000000000000000000000000000000000000000000000000000004000000000000000000001000000000000000002000000000000100000000010000000000000000000000000000000000000000000400000000000000000100000",
      "type": "0x2",
      "transactionHash": "0x6f07abfbab1a1285fc3f8a78fa325208ee5893af5799e80486833aeeff3c48ea",
      "transactionIndex": "0x1",
      "blockHash": "0x0d4c661997839d99703ed5ad2b376e0a3236357f232bfcd1cf678907becdd8bf",
      "blockNumber": "0x710945",
      "gasUsed": "0xb62c",
      "effectiveGasPrice": "0x4190ab0f",
      "from": "0x8a82a574c1067bb12676d488277087ac063f21d5",
      "to": "0x4633bfbb343f131def95ac1fd518ed4495092063",
      "contractAddress": null
    },
    {
      "status": "0x1",
      "cumulativeGasUsed": "0x3073c1",
      "logs": [
        {
          "address": "0x0000000000000000000000000000000000001010",
          "topics": [
            "0x4dfe1bbbcf077ddc3e01291eea2d5c70c2b422b415d95645b9adcfd678cb1d63",
            "0x0000000000000000000000000000000000000000000000000000000000001010",
            "0x0000000000000000000000008a82a574c1067bb12676d488277087ac063f21d5",
            "0x000000000000000000000000915a2284d28bd93de7d6f31173b981204bb666e6"
          ],
          "data": "0x00000000000000000000000000000000000000000000000000002eab3137680000000000000000000000000000000000000000000000000000938ee5c612010000000000000000000000000000000000000000000000016ca42041f4270220570000000000000000000000000000000000000000000000000093603a94da990000000000000000000000000000000000000000000000016ca420709f58398857",
          "blockHash": "0x0d4c661997839d99703ed5ad2b376e0a3236357f232bfcd1cf678907becdd8bf",
          "blockNumber": "0x710945",
          "transactionHash": "0x8a78d081755ababc077e6cf107ce83473bdbe019a07399b67e04c739832698fb",
          "transactionIndex": "0x3",
          "logIndex": "0x13",
          "removed": false
        }
      ],
      "logsBloom": "0x00000000000000000010000000000000000000000000000000000000000000000000000000000000000000000000000000008000000000000000000000000000000000000000000000000000000000800000000000000000000100000000000000200000000000000000020000000000000000000000000080000000000000000000000000000000000000000000000000000000000000000000000000000000200000000000000000000000000000000000000000000000000000000000004000000000000000000001000000000000000002000000000000100000000010000000000000000000000000000000000000000000400000000000000000100000",
      "type": "0x2",
      "transactionHash": "0x8a78d081755ababc077e6cf107ce83473bdbe019a07399b67e04c739832698fb",
      "transactionIndex": "0x3",
      "blockHash": "0x0d4c661997839d99703ed5ad2b376e0a3236357f232bfcd1cf678907becdd8bf",
      "blockNumber": "0x710945",
      "gasUsed": "0xb638",
      "effectiveGasPrice": "0x4190ab0f",
      "from": "0x8a82a574c1067bb12676d488277087ac063f21d5",
      "to": "0x4633bfbb343f131def95ac1fd518ed4495092063",
      "contractAddress": null
    },
    {
      "status": "0x1",
      "cumulativeGasUsed": "0x3129f9",
      "logs": [
        {
          "address": "0x0000000000000000000000000000000000001010",
          "topics": [
            "0x4dfe1bbbcf077ddc3e01291eea2d5c70c2b422b415d95645b9adcfd678cb1d63",
            "0x0000000000000000000000000000000000000000000000000000000000001010",
            "0x0000000000000000000000008a82a574c1067bb12676d488277087ac063f21d5",
            "0x000000000000000000000000915a2284d28bd93de7d6f31173b981204bb666e6"
          ],
          "data": "0x00000000000000000000000000000000000000000000000000002eab313768000000000000000000000000000000000000000000000000000093603a94cfebb800000000000000000000000000000000000000000000016ca420709f583988570000000000000000000000000000000000000000000000000093318f639883b800000000000000000000000000000000000000000000016ca4209f4a8970f057",
          "blockHash": "0x0d4c661997839d99703ed5ad2b376e0a3236357f232bfcd1cf678907becdd8bf",
          "blockNumber": "0x710945",
          "transactionHash": "0xf0d8f6ed9ed7bf35a2438c5c32dc6f79b23ffc0c352b3ba9ba2b8a0524576aef",
          "transactionIndex": "0x4",
          "logIndex": "0x14",
          "removed": false
        }
      ],
      "logsBloom": "0x00000000000000000010000000000000000000000000000000000000000000000000000000000000000000000000000000008000000000000000000000000000000000000000000000000000000000800000000000000000000100000000000000200000000000000000020000000000000000000000000080000000000000000000000000000000000000000000000000000000000000000000000000000000200000000000000000000000000000000000000000000000000000000000004000000000000000000001000000000000000002000000000000100000000010000000000000000000000000000000000000000000400000000000000000100000",
      "type": "0x2",
      "transactionHash": "0xf0d8f6ed9ed7bf35a2438c5c32dc6f79b23ffc0c352b3ba9ba2b8a0524576aef",
      "transactionIndex": "0x4",
      "blockHash": "0x0d4c661997839d99703ed5ad2b376e0a3236357f232bfcd1cf678907becdd8bf",
      "blockNumber": "0x710945",
      "gasUsed": "0xb638",
      "effectiveGasPrice": "0x4190ab0f",
      "from": "0x8a82a574c1067bb12676d488277087ac063f21d5",
      "to": "0x4633bfbb343f131def95ac1fd518ed4495092063",
      "contractAddress": null
    },
    {
      "status": "0x1",
      "cumulativeGasUsed": "0x31e025",
      "logs": [
        {
          "address": "0x0000000000000000000000000000000000001010",
          "topics": [
            "0x4dfe1bbbcf077ddc3e01291eea2d5c70c2b422b415d95645b9adcfd678cb1d63",
            "0x0000000000000000000000000000000000000000000000000000000000001010",
            "0x0000000000000000000000008a82a574c1067bb12676d488277087ac063f21d5",
            "0x000000000000000000000000915a2284d28bd93de7d6f31173b981204bb666e6"
          ],
          "data": "0x00000000000000000000000000000000000000000000000000002ea81e6f64000000000000000000000000000000000000000000000000000093318f638dd67000000000000000000000000000000000000000000000016ca4209f4a8970f057000000000000000000000000000000000000000000000000009302e7451e727000000000000000000000000000000000000000000000016ca420cdf2a7e05457",
          "blockHash": "0x0d4c661997839d99703ed5ad2b376e0a3236357f232bfcd1cf678907becdd8bf",
          "blockNumber": "0x710945",
          "transactionHash": "0xa07c55d642edc91232d34709678eb8b923a06320cc57ba0ec07b142cfae5b5d0",
          "transactionIndex": "0x5",
          "logIndex": "0x15",
          "removed": false
        }
      ],
      "logsBloom": "0x00000000000000000010000000000000000000000000000000000000000000000000000000000000000000000000000000008000000000000000000000000000000000000000000000000000000000800000000000000000000100000000000000200000000000000000020000000000000000000000000080000000000000000000000000000000000000000000000000000000000000000000000000000000200000000000000000000000000000000000000000000000000000000000004000000000000000000001000000000000000002000000000000100000000010000000000000000000000000000000000000000000400000000000000000100000",
      "type": "0x2",
      "transactionHash": "0xa07c55d642edc91232d34709678eb8b923a06320cc57ba0ec07b142cfae5b5d0",
      "transactionIndex": "0x5",
      "blockHash": "0x0d4c661997839d99703ed5ad2b376e0a3236357f232bfcd1cf678907becdd8bf",
      "blockNumber": "0x710945",
      "gasUsed": "0xb62c",
      "effectiveGasPrice": "0x4190ab0f",
      "from": "0x8a82a574c1067bb12676d488277087ac063f21d5",
      "to": "0x4633bfbb343f131def95ac1fd518ed4495092063",
      "contractAddress": null
    },
    {
      "status": "0x1",
      "cumulativeGasUsed": "0x32965d",
      "logs": [
        {
          "address": "0x0000000000000000000000000000000000001010",
          "topics": [
            "0x4dfe1bbbcf077ddc3e01291eea2d5c70c2b422b415d95645b9adcfd678cb1d63",
            "0x0000000000000000000000000000000000000000000000000000000000001010",
            "0x0000000000000000000000008a82a574c1067bb12676d488277087ac063f21d5",
            "0x000000000000000000000000915a2284d28bd93de7d6f31173b981204bb666e6"
          ],
          "data": "0x00000000000000000000000000000000000000000000000000002eab31376800000000000000000000000000000000000000000000000000009302e74513c5dc00000000000000000000000000000000000000000000016ca420cdf2a7e054570000000000000000000000000000000000000000000000000092d43c13dc5ddc00000000000000000000000000000000000000000000016ca420fc9dd917bc57",
          "blockHash": "0x0d4c661997839d99703ed5ad2b376e0a3236357f232bfcd1cf678907becdd8bf",
          "blockNumber": "0x710945",
          "transactionHash": "0x3b456fa75ca4216d59464c6a2e93326bae4fa3fe525397a1913fe930aebfffd2",
          "transactionIndex": "0x6",
          "logIndex": "0x16",
          "removed": false
        }
      ],
      "logsBloom": "0x00000000000000000010000000000000000000000000000000000000000000000000000000000000000000000000000000008000000000000000000000000000000000000000000000000000000000800000000000000000000100000000000000200000000000000000020000000000000000000000000080000000000000000000000000000000000000000000000000000000000000000000000000000000200000000000000000000000000000000000000000000000000000000000004000000000000000000001000000000000000002000000000000100000000010000000000000000000000000000000000000000000400000000000000000100000",
      "type": "0x2",
      "transactionHash": "0x3b456fa75ca4216d59464c6a2e93326bae4fa3fe525397a1913fe930aebfffd2",
      "transactionIndex": "0x6",
      "blockHash": "0x0d4c661997839d99703ed5ad2b376e0a3236357f232bfcd1cf678907becdd8bf",
      "blockNumber": "0x710945",
      "gasUsed": "0xb638",
      "effectiveGasPrice": "0x4190ab0f",
      "from": "0x8a82a574c1067bb12676d488277087ac063f21d5",
      "to": "0x4633bfbb343f131def95ac1fd518ed4495092063",
      "contractAddress": null
    },
    {
      "status": "0x1",
      "cumulativeGasUsed": "0x334c95",
      "logs": [
        {
          "address": "0x0000000000000000000000000000000000001010",
          "topics": [
            "0x4dfe1bbbcf077ddc3e01291eea2d5c70c2b422b415d95645b9adcfd678cb1d63",
            "0x0000000000000000000000000000000000000000000000000000000000001010",
            "0x0000000000000000000000008a82a574c1067bb12676d488277087ac063f21d5",
            "0x000000000000000000000000915a2284d28bd93de7d6f31173b981204bb666e6"
          ],
          "data": "0x00000000000000000000000000000000000000000000000000002eab313768000000000000000000000000000000000000000000000000000092d43c13d1b09400000000000000000000000000000000000000000000016ca420fc9dd917bc570000000000000000000000000000000000000000000000000092a590e29a489400000000000000000000000000000000000000000000016ca4212b490a4f2457",
          "blockHash": "0x0d4c661997839d99703ed5ad2b376e0a3236357f232bfcd1cf678907becdd8bf",
          "blockNumber": "0x710945",
          "transactionHash": "0x61f38241d0b1f3e2d638e8448ec84942969bef7f04584111ba7991bc286a7c00",
          "transactionIndex": "0x7",
          "logIndex": "0x17",
          "removed": false
        }
      ],
      "logsBloom": "0x00000000000000000010000000000000000000000000000000000000000000000000000000000000000000000000000000008000000000000000000000000000000000000000000000000000000000800000000000000000000100000000000000200000000000000000020000000000000000000000000080000000000000000000000000000000000000000000000000000000000000000000000000000000200000000000000000000000000000000000000000000000000000000000004000000000000000000001000000000000000002000000000000100000000010000000000000000000000000000000000000000000400000000000000000100000",
      "type": "0x2",
      "transactionHash": "0x61f38241d0b1f3e2d638e8448ec84942969bef7f04584111ba7991bc286a7c00",
      "transactionIndex": "0x7",
      "blockHash": "0x0d4c661997839d99703ed5ad2b376e0a3236357f232bfcd1cf678907becdd8bf",
      "blockNumber": "0x710945",
      "gasUsed": "0xb638",
      "effectiveGasPrice": "0x4190ab0f",
      "from": "0x8a82a574c1067bb12676d488277087ac063f21d5",
      "to": "0x4633bfbb343f131def95ac1fd518ed4495092063",
      "contractAddress": null
    }
  ],
  "libraries": [],
  "pending": [],
  "returns": {},
  "timestamp": 1716491448,
  "chain": 80002,
  "commit": "5a3dc8e"
}